{
  "address": "0x26FD6E2Cf00BDf8d6d8433BAe578949711498fB3",
  "abi": [
    {
      "inputs": [
        {
          "internalType": "uint256",
          "name": "entranceFee",
          "type": "uint256"
        },
        {
          "internalType": "address",
          "name": "vrfCoordinator",
          "type": "address"
        },
        {
          "internalType": "uint256",
          "name": "subscriptionId",
          "type": "uint256"
        },
        {
          "internalType": "bytes32",
          "name": "keyHash",
          "type": "bytes32"
        },
        {
          "internalType": "uint32",
          "name": "callbackGasLimit",
          "type": "uint32"
        },
        {
          "internalType": "uint256",
          "name": "interval",
          "type": "uint256"
        }
      ],
      "stateMutability": "nonpayable",
      "type": "constructor"
    },
    {
      "inputs": [
        {
          "internalType": "address",
          "name": "have",
          "type": "address"
        },
        {
          "internalType": "address",
          "name": "want",
          "type": "address"
        }
      ],
      "name": "OnlyCoordinatorCanFulfill",
      "type": "error"
    },
    {
      "inputs": [
        {
          "internalType": "address",
          "name": "have",
          "type": "address"
        },
        {
          "internalType": "address",
          "name": "owner",
          "type": "address"
        },
        {
          "internalType": "address",
          "name": "coordinator",
          "type": "address"
        }
      ],
      "name": "OnlyOwnerOrCoordinator",
      "type": "error"
    },
    {
      "inputs": [],
      "name": "Raffle__NotEnoughETHEntered",
      "type": "error"
    },
    {
      "inputs": [],
      "name": "Raffle__NotOpen",
      "type": "error"
    },
    {
      "inputs": [],
      "name": "Raffle__TransferFailed",
      "type": "error"
    },
    {
      "inputs": [
        {
          "internalType": "uint256",
          "name": "currentBalance",
          "type": "uint256"
        },
        {
          "internalType": "uint256",
          "name": "numPlayers",
          "type": "uint256"
        },
        {
          "internalType": "uint256",
          "name": "raffeState",
          "type": "uint256"
        }
      ],
      "name": "Raffle__UpkeepNotNeeded",
      "type": "error"
    },
    {
      "inputs": [],
      "name": "ZeroAddress",
      "type": "error"
    },
    {
      "anonymous": false,
      "inputs": [
        {
          "indexed": false,
          "internalType": "address",
          "name": "vrfCoordinator",
          "type": "address"
        }
      ],
      "name": "CoordinatorSet",
      "type": "event"
    },
    {
      "anonymous": false,
      "inputs": [
        {
          "indexed": true,
          "internalType": "address",
          "name": "from",
          "type": "address"
        },
        {
          "indexed": true,
          "internalType": "address",
          "name": "to",
          "type": "address"
        }
      ],
      "name": "OwnershipTransferRequested",
      "type": "event"
    },
    {
      "anonymous": false,
      "inputs": [
        {
          "indexed": true,
          "internalType": "address",
          "name": "from",
          "type": "address"
        },
        {
          "indexed": true,
          "internalType": "address",
          "name": "to",
          "type": "address"
        }
      ],
      "name": "OwnershipTransferred",
      "type": "event"
    },
    {
      "anonymous": false,
      "inputs": [
        {
          "indexed": true,
          "internalType": "address",
          "name": "player",
          "type": "address"
        }
      ],
      "name": "RaffleEnter",
      "type": "event"
    },
    {
      "anonymous": false,
      "inputs": [
        {
          "indexed": true,
          "internalType": "uint256",
          "name": "requestId",
          "type": "uint256"
        }
      ],
      "name": "RequestedRaffleWinner",
      "type": "event"
    },
    {
      "anonymous": false,
      "inputs": [
        {
          "indexed": true,
          "internalType": "address",
          "name": "winner",
          "type": "address"
        }
      ],
      "name": "WinnerPicked",
      "type": "event"
    },
    {
      "inputs": [],
      "name": "acceptOwnership",
      "outputs": [],
      "stateMutability": "nonpayable",
      "type": "function"
    },
    {
      "inputs": [
        {
          "internalType": "bytes",
          "name": "",
          "type": "bytes"
        }
      ],
      "name": "checkUpkeep",
      "outputs": [
        {
          "internalType": "bool",
          "name": "upkeepNeeded",
          "type": "bool"
        },
        {
          "internalType": "bytes",
          "name": "performData",
          "type": "bytes"
        }
      ],
      "stateMutability": "view",
      "type": "function"
    },
    {
      "inputs": [],
      "name": "enter",
      "outputs": [],
      "stateMutability": "payable",
      "type": "function"
    },
    {
      "inputs": [],
      "name": "getEntranceFee",
      "outputs": [
        {
          "internalType": "uint256",
          "name": "",
          "type": "uint256"
        }
      ],
      "stateMutability": "view",
      "type": "function"
    },
    {
      "inputs": [],
      "name": "getInterval",
      "outputs": [
        {
          "internalType": "uint256",
          "name": "",
          "type": "uint256"
        }
      ],
      "stateMutability": "view",
      "type": "function"
    },
    {
      "inputs": [],
      "name": "getLastTimestamp",
      "outputs": [
        {
          "internalType": "uint256",
          "name": "",
          "type": "uint256"
        }
      ],
      "stateMutability": "view",
      "type": "function"
    },
    {
      "inputs": [],
      "name": "getNumberOfPlayers",
      "outputs": [
        {
          "internalType": "uint256",
          "name": "",
          "type": "uint256"
        }
      ],
      "stateMutability": "view",
      "type": "function"
    },
    {
      "inputs": [
        {
          "internalType": "uint256",
          "name": "index",
          "type": "uint256"
        }
      ],
      "name": "getPlayer",
      "outputs": [
        {
          "internalType": "address",
          "name": "",
          "type": "address"
        }
      ],
      "stateMutability": "view",
      "type": "function"
    },
    {
      "inputs": [],
      "name": "getRaffleState",
      "outputs": [
        {
          "internalType": "enum Raffle.RaffleState",
          "name": "",
          "type": "uint8"
        }
      ],
      "stateMutability": "view",
      "type": "function"
    },
    {
      "inputs": [],
      "name": "getRecentWinner",
      "outputs": [
        {
          "internalType": "address",
          "name": "",
          "type": "address"
        }
      ],
      "stateMutability": "view",
      "type": "function"
    },
    {
      "inputs": [],
      "name": "owner",
      "outputs": [
        {
          "internalType": "address",
          "name": "",
          "type": "address"
        }
      ],
      "stateMutability": "view",
      "type": "function"
    },
    {
      "inputs": [
        {
          "internalType": "bytes",
          "name": "",
          "type": "bytes"
        }
      ],
      "name": "performUpkeep",
      "outputs": [],
      "stateMutability": "nonpayable",
      "type": "function"
    },
    {
      "inputs": [
        {
          "internalType": "uint256",
          "name": "requestId",
          "type": "uint256"
        },
        {
          "internalType": "uint256[]",
          "name": "randomWords",
          "type": "uint256[]"
        }
      ],
      "name": "rawFulfillRandomWords",
      "outputs": [],
      "stateMutability": "nonpayable",
      "type": "function"
    },
    {
      "inputs": [],
      "name": "s_vrfCoordinator",
      "outputs": [
        {
          "internalType": "contract IVRFCoordinatorV2Plus",
          "name": "",
          "type": "address"
        }
      ],
      "stateMutability": "view",
      "type": "function"
    },
    {
      "inputs": [
        {
          "internalType": "address",
          "name": "_vrfCoordinator",
          "type": "address"
        }
      ],
      "name": "setCoordinator",
      "outputs": [],
      "stateMutability": "nonpayable",
      "type": "function"
    },
    {
      "inputs": [
        {
          "internalType": "address",
          "name": "to",
          "type": "address"
        }
      ],
      "name": "transferOwnership",
      "outputs": [],
      "stateMutability": "nonpayable",
      "type": "function"
    }
  ],
  "transactionHash": "0x6466e7d839975ea84960288f83a9bdbdec580b7a34f6e915ad652575b9b0ad98",
  "args": [
    "1000000000",
    "0x9DdfaCa8183c41ad55329BdeeD9F6A8d53168B1B",
    "64632589518529213581933405568772200777274765879021659614700779271005812976331",
    "0x787d74caea10b2b357790d5b5247c2f63d1d91572a9846f780606e4d953677ae",
    200000,
    "30"
  ],
  "numDeployments": 1,
  "solcInputHash": "2f06079a2218dbd2ee79aaaab907dfdf",
  "bytecode": "0x61010060405234801561001157600080fd5b50604051611172380380611172833981016040819052610030916101e1565b8433806000816100875760405162461bcd60e51b815260206004820152601860248201527f43616e6e6f7420736574206f776e657220746f207a65726f000000000000000060448201526064015b60405180910390fd5b600080546001600160a01b0319166001600160a01b03848116919091179091558116156100b7576100b781610138565b5050506001600160a01b0381166100e15760405163d92e233d60e01b815260040160405180910390fd5b600280546001600160a81b0319166001600160a01b03929092169190911790554260035560a09590955260c09290925260e0526006805463ffffffff90921663ffffffff1990921691909117905550608052610257565b336001600160a01b038216036101905760405162461bcd60e51b815260206004820152601760248201527f43616e6e6f74207472616e7366657220746f2073656c66000000000000000000604482015260640161007e565b600180546001600160a01b0319166001600160a01b0383811691821790925560008054604051929316917fed8889f560326eb138920d842192f0eb3dd22b4f139c87a2c57538e05bae12789190a350565b60008060008060008060c087890312156101fa57600080fd5b865160208801519096506001600160a01b038116811461021957600080fd5b809550506040870151935060608701519250608087015163ffffffff8116811461024257600080fd5b8092505060a087015190509295509295509295565b60805160a05160c05160e051610ed461029e60003960006103f001526000610413015260008181610107015261070d01526000818161027a01526109a10152610ed46000f3fe6080604052600436106100f35760003560e01c80638da5cb5b1161008a578063e55ae4e811610059578063e55ae4e8146102be578063e97dcb62146102de578063f2fde38b146102e6578063fd6673f51461030657600080fd5b80638da5cb5b1461022d5780638ea981171461024b57806391ad27b41461026b5780639eccacf61461029e57600080fd5b80634585e33b116100c65780634585e33b14610198578063473f1ddc146101b85780636e04ff0d146101ea57806379ba50971461021857600080fd5b806309bc33a7146100f8578063115cbaf51461013a5780631fe543e3146101615780633789977014610183575b600080fd5b34801561010457600080fd5b507f00000000000000000000000000000000000000000000000000000000000000005b6040519081526020015b60405180910390f35b34801561014657600080fd5b50600254600160a01b900460ff166040516101319190610bfe565b34801561016d57600080fd5b5061018161017c366004610c26565b61031b565b005b34801561018f57600080fd5b50600354610127565b3480156101a457600080fd5b506101816101b3366004610ca5565b610370565b3480156101c457600080fd5b506004546001600160a01b03165b6040516001600160a01b039091168152602001610131565b3480156101f657600080fd5b5061020a610205366004610ca5565b610519565b604051610131929190610d5d565b34801561022457600080fd5b5061018161053f565b34801561023957600080fd5b506000546001600160a01b03166101d2565b34801561025757600080fd5b50610181610266366004610d80565b6105e9565b34801561027757600080fd5b507f0000000000000000000000000000000000000000000000000000000000000000610127565b3480156102aa57600080fd5b506002546101d2906001600160a01b031681565b3480156102ca57600080fd5b506101d26102d9366004610db0565b6106db565b61018161070b565b3480156102f257600080fd5b50610181610301366004610d80565b6107f8565b34801561031257600080fd5b50600554610127565b6002546001600160a01b031633146103605760025460405163073e64fd60e21b81523360048201526001600160a01b0390911660248201526044015b60405180910390fd5b61036b83838361080c565b505050565b600061037a610975565b9050806103cf57600554600254479190600160a01b900460ff1660018111156103a5576103a5610be8565b604051632c2193d560e11b8152600481019390935260248301919091526044820152606401610357565b60028054600160a01b60ff60a01b198216179091556040805160c0810182527f000000000000000000000000000000000000000000000000000000000000000081527f000000000000000000000000000000000000000000000000000000000000000060208083019190915260038284015260065463ffffffff1660608301526001608083015282519081019092526000808352926001600160a01b031691639b1c385e919060a0820190610483906109ff565b8152506040518263ffffffff1660e01b81526004016104a29190610dc9565b6020604051808303816000875af11580156104c1573d6000803e3d6000fd5b505050506040513d601f19601f820116820180604052508101906104e59190610e26565b60405190915081907fcd6e45c8998311cab7e9d4385596cac867e20a0587194b954fa3a731c93ce78b90600090a250505050565b60006060610525610975565b604080516000815260208101909152909590945092505050565b6001546001600160a01b031633146105925760405162461bcd60e51b815260206004820152601660248201527526bab9ba10313290383937b837b9b2b21037bbb732b960511b6044820152606401610357565b60008054336001600160a01b0319808316821784556001805490911690556040516001600160a01b0390921692909183917f8be0079c531659141344cd1fd0a4f28419497f9722a3daafe3b4186f6b6457e091a350565b6000546001600160a01b0316331480159061060f57506002546001600160a01b03163314155b1561066057336106276000546001600160a01b031690565b60025460405163061db9c160e01b81526001600160a01b0393841660048201529183166024830152919091166044820152606401610357565b6001600160a01b0381166106875760405163d92e233d60e01b815260040160405180910390fd5b600280546001600160a01b0319166001600160a01b0383169081179091556040519081527fd1a6a14209a385a964d036e404cb5cfb71f4000cdb03c9366292430787261be69060200160405180910390a150565b6000600582815481106106f0576106f0610e3f565b6000918252602090912001546001600160a01b031692915050565b7f000000000000000000000000000000000000000000000000000000000000000034101561074c5760405163bd4e069560e01b815260040160405180910390fd5b6000600254600160a01b900460ff16600181111561076c5761076c610be8565b1461078a5760405163050955c760e21b815260040160405180910390fd5b6005805460018101825560009182527f036b6384b5eca791c62761152d0c79bb0604c104a5fb6f4eb0703f3154bb3db00180546001600160a01b0319163390811790915560405190917f0805e1d667bddb8a95f0f09880cf94f403fb596ce79928d9f29b74203ba284d491a2565b610800610a70565b61080981610ac5565b50565b6005546000908383838161082257610822610e3f565b905060200201356108339190610e55565b905060006005828154811061084a5761084a610e3f565b6000918252602082200154600480546001600160a01b0319166001600160a01b039092169182179055915060405190808252806020026020018201604052801561089e578160200160208202803683370190505b5080516108b391600591602090910190610b6e565b506002805460ff60a01b19169055426003556004546040516000916001600160a01b03169047908381818185875af1925050503d8060008114610912576040519150601f19603f3d011682016040523d82523d6000602084013e610917565b606091505b50509050806109395760405163a1d04b3960e01b815260040160405180910390fd5b6040516001600160a01b038316907f5b690ec4a06fe979403046eaeea5b3ce38524683c3001f662c8b5a829632f7df90600090a2505050505050565b6002546000908190600160a01b900460ff16600181111561099857610998610be8565b600014905060007f0000000000000000000000000000000000000000000000000000000000000000600354426109ce9190610e77565b6005549110915015154715158380156109e45750825b80156109ed5750815b80156109f65750805b94505050505090565b60607f92fd13387c7fe7befbc38d303d6468778fb9731bc4583f17d92989c6fcfdeaaa82604051602401610a3891511515815260200190565b60408051601f198184030181529190526020810180516001600160e01b03166001600160e01b03199093169290921790915292915050565b6000546001600160a01b03163314610ac35760405162461bcd60e51b815260206004820152601660248201527527b7363c9031b0b63630b1363290313c9037bbb732b960511b6044820152606401610357565b565b336001600160a01b03821603610b1d5760405162461bcd60e51b815260206004820152601760248201527f43616e6e6f74207472616e7366657220746f2073656c660000000000000000006044820152606401610357565b600180546001600160a01b0319166001600160a01b0383811691821790925560008054604051929316917fed8889f560326eb138920d842192f0eb3dd22b4f139c87a2c57538e05bae12789190a350565b828054828255906000526020600020908101928215610bc3579160200282015b82811115610bc357825182546001600160a01b0319166001600160a01b03909116178255602090920191600190910190610b8e565b50610bcf929150610bd3565b5090565b5b80821115610bcf5760008155600101610bd4565b634e487b7160e01b600052602160045260246000fd5b6020810160028310610c2057634e487b7160e01b600052602160045260246000fd5b91905290565b600080600060408486031215610c3b57600080fd5b83359250602084013567ffffffffffffffff80821115610c5a57600080fd5b818601915086601f830112610c6e57600080fd5b813581811115610c7d57600080fd5b8760208260051b8501011115610c9257600080fd5b6020830194508093505050509250925092565b60008060208385031215610cb857600080fd5b823567ffffffffffffffff80821115610cd057600080fd5b818501915085601f830112610ce457600080fd5b813581811115610cf357600080fd5b866020828501011115610d0557600080fd5b60209290920196919550909350505050565b6000815180845260005b81811015610d3d57602081850181015186830182015201610d21565b506000602082860101526020601f19601f83011685010191505092915050565b8215158152604060208201526000610d786040830184610d17565b949350505050565b600060208284031215610d9257600080fd5b81356001600160a01b0381168114610da957600080fd5b9392505050565b600060208284031215610dc257600080fd5b5035919050565b60208152815160208201526020820151604082015261ffff60408301511660608201526000606083015163ffffffff80821660808501528060808601511660a0850152505060a083015160c080840152610d7860e0840182610d17565b600060208284031215610e3857600080fd5b5051919050565b634e487b7160e01b600052603260045260246000fd5b600082610e7257634e487b7160e01b600052601260045260246000fd5b500690565b81810381811115610e9857634e487b7160e01b600052601160045260246000fd5b9291505056fea2646970667358221220469b10b3d6b7deeba6162797b978ccb7122eac1afc6912bfa3eaa0cf9c66827664736f6c63430008130033",
  "devdoc": {
    "author": "jipingl",
    "details": "chainlink VRF version is v2.5chainlink automation version is v2.1",
    "kind": "dev",
    "methods": {},
    "title": "A truly decentralized Raffle",
    "version": 1
  },
  "userdoc": {
    "kind": "user",
    "methods": {
      "acceptOwnership()": {
        "notice": "Allows an ownership transfer to be completed by the recipient."
      },
      "checkUpkeep(bytes)": {
        "notice": "Automation will call this method to check if performUpkeep is executed"
      },
      "enter()": {
        "notice": "Users participate in the raffle through this function"
      },
      "owner()": {
        "notice": "Get the current owner"
      },
      "performUpkeep(bytes)": {
        "notice": "Automation calls this method to trigger the selection of winners"
      },
      "setCoordinator(address)": {
        "notice": "Sets the VRF Coordinator addressThis method should only be callable by the coordinator or contract owner"
      },
      "transferOwnership(address)": {
        "notice": "Allows an owner to begin transferring ownership to a new address."
      }
    },
    "notice": "The raffle logic of this contract is as follows:1. Users join the raffle and pay a fee.2. After a certain time interval, chainlink automation will automatically trigger the logic of selecting the final winner.3. The final winner is calculated from the random number of chainlink VRF",
    "version": 1
  },
  "storageLayout": {
    "storage": [
      {
        "astId": 97,
        "contract": "contracts/Raffle.sol:Raffle",
        "label": "s_owner",
        "offset": 0,
        "slot": "0",
        "type": "t_address"
      },
      {
        "astId": 99,
        "contract": "contracts/Raffle.sol:Raffle",
        "label": "s_pendingOwner",
        "offset": 0,
        "slot": "1",
        "type": "t_address"
      },
      {
        "astId": 2400,
        "contract": "contracts/Raffle.sol:Raffle",
        "label": "s_vrfCoordinator",
        "offset": 0,
        "slot": "2",
        "type": "t_contract(IVRFCoordinatorV2Plus)2549"
      },
      {
        "astId": 3555,
        "contract": "contracts/Raffle.sol:Raffle",
        "label": "s_raffleSate",
        "offset": 20,
        "slot": "2",
        "type": "t_enum(RaffleState)3552"
      },
      {
        "astId": 3557,
        "contract": "contracts/Raffle.sol:Raffle",
        "label": "s_lastTimestamp",
        "offset": 0,
        "slot": "3",
        "type": "t_uint256"
      },
      {
        "astId": 3559,
        "contract": "contracts/Raffle.sol:Raffle",
        "label": "s_recentWinner",
        "offset": 0,
        "slot": "4",
        "type": "t_address"
      },
      {
        "astId": 3562,
        "contract": "contracts/Raffle.sol:Raffle",
        "label": "s_players",
        "offset": 0,
        "slot": "5",
        "type": "t_array(t_address_payable)dyn_storage"
      },
      {
        "astId": 3572,
        "contract": "contracts/Raffle.sol:Raffle",
        "label": "i_callbackGasLimit",
        "offset": 0,
        "slot": "6",
        "type": "t_uint32"
      }
    ],
    "types": {
      "t_address": {
        "encoding": "inplace",
        "label": "address",
        "numberOfBytes": "20"
      },
      "t_address_payable": {
        "encoding": "inplace",
        "label": "address payable",
        "numberOfBytes": "20"
      },
      "t_array(t_address_payable)dyn_storage": {
        "base": "t_address_payable",
        "encoding": "dynamic_array",
        "label": "address payable[]",
        "numberOfBytes": "32"
      },
      "t_contract(IVRFCoordinatorV2Plus)2549": {
        "encoding": "inplace",
        "label": "contract IVRFCoordinatorV2Plus",
        "numberOfBytes": "20"
      },
      "t_enum(RaffleState)3552": {
        "encoding": "inplace",
        "label": "enum Raffle.RaffleState",
        "numberOfBytes": "1"
      },
      "t_uint256": {
        "encoding": "inplace",
        "label": "uint256",
        "numberOfBytes": "32"
      },
      "t_uint32": {
        "encoding": "inplace",
        "label": "uint32",
        "numberOfBytes": "4"
      }
    }
  }
}